S01200004175746F4D6F746976652E7372656305
S11300000C942A000C9447000C9447000C9447006D
S11300100C9447000C9447000C9447000C94470040
S11300200C9447000C943B090C9447000C94470033
S11300300C9447000C9447000C9447000C94470020
S11300400C9447000C9447000C9447000C94470010
S11300500C94470011241FBECFE5D8E0DEBFCDBF0E
S113006010E0A0E6B0E0EEE6F3E102C005900D92E8
S1130070A63DB107D9F720E0A6EDB0E001C01D927E
S1130080A73FB207E1F70E945E030C94B5090C94F4
S11300900000662319F06F3F89F00895813041F024
S11300A028F0823039F0833039F008951ABA08956F
S11300B017BA089514BA089511BA0895813049F011
S11300C028F0823049F0833051F008958FEF8ABBD5
S11300D008958FEF87BB08958FEF84BB08958FEF4A
S11300E081BB08954423B9F1413009F06BC08130DC
S11300F089F028F08230C9F0833011F108952AB3D1
S113010081E090E002C0880F991F6A95E2F7822B84
S11301108ABB089527B381E090E002C0880F991F3D
S11301206A95E2F7822B87BB089524B381E090E0BF
S113013002C0880F991F6A95E2F7822B84BB089549
S113014021B381E090E002C0880F991F6A95E2F71D
S1130150822B81BB0895813091F028F08230D9F050
S1130160833029F108952AB381E090E002C0880F1A
S1130170991F6A95E2F7809582238ABB089527B375
S113018081E090E002C0880F991F6A95E2F780959C
S1130190822387BB089524B381E090E002C0880FD6
S11301A0991F6A95E2F78095822384BB089521B351
S11301B081E090E002C0880F991F6A95E2F780956C
S11301C0822381BB0895813041F028F0823039F0D8
S11301D0833039F008956BBB089568BB089565BBFF
S11301E0089562BB08954423B9F1413009F06BC00E
S11301F0813089F028F08230C9F0833011F10895FC
S11302002BB381E090E002C0880F991F6A95E2F752
S1130210822B8BBB089528B381E090E002C0880F45
S1130220991F6A95E2F7822B88BB089525B381E074
S113023090E002C0880F991F6A95E2F7822B85BB74
S1130240089522B381E090E002C0880F991F6A9557
S1130250E2F7822B82BB0895813091F028F082303E
S1130260D9F0833029F108952BB381E090E002C0E6
S1130270880F991F6A95E2F7809582238BBB0895B6
S113028028B381E090E002C0880F991F6A95E2F7D5
S11302908095822388BB089525B381E090E002C055
S11302A0880F991F6A95E2F78095822385BB08958C
S11302B022B381E090E002C0880F991F6A95E2F7AB
S11302C08095822382BB08958130B1F028F082307A
S11302D019F1833089F108952AB381E090E002C0D6
S11302E0880F991F6A95E2F7982F909592239ABBED
S11302F09BB3892B8BBB089527B381E090E002C0A8
S1130300880F991F6A95E2F7982F9095922397BBCF
S113031098B3892B88BB089524B381E090E002C090
S1130320880F991F6A95E2F7982F9095922394BBB2
S113033095B3892B85BB089521B381E090E002C079
S1130340880F991F6A95E2F7982F9095922391BB95
S113035092B3892B82BB089540E062E083E00E945F
S1130360720040E063E083E00E94720080EC8BBF87
S11303708FE085BF0895CF93DF93EC0141E06C815A
S113038089810E94F3008FE891E00197F1F700C0A2
S1130390000040E06C8189810E94F3008FE891E0C5
S11303A00197F1F700C00000DF91CF9108951F93EA
S11303B0CF93DF93EC01162F8881811135C060FF44
S11303C006C041E06E818D810E94F30005C040E0CB
S11303D06E818D810E94F30011FF06C041E06F81A0
S11303E08D810E94F30005C040E06F818D810E94E1
S11303F0F30012FF06C041E068858D810E94F3007E
S113040005C040E068858D810E94F30013FF06C09B
S113041041E069858D810E94F30009C040E069854F
S11304208D810E94F30003C08D810E94E300DF915F
S1130430CF911F9108951F93CF93DF93EC01162F53
S113044040E06A8189810E94F3008881811112C091
S1130450612F62956F70CE010E94D701CE010E9478
S1130460BB01612F6F70CE010E94D701CE010E94A3
S1130470BB0107C0612FCE010E94D701CE010E94AB
S1130480BB01DF91CF911F910895CF93DF93EC01CE
S113049041E06A8189810E94720041E06B81898117
S11304A00E94720041E06C8189810E94720040E0E8
S11304B06B8189810E94F300888181113CC041E0F5
S11304C06E818D810E94720041E06F818D810E9456
S11304D0720041E068858D810E94720041E0698567
S11304E08D810E9472002FEF89EF90E021508040AF
S11304F09040E1F700C0000063E3CE010E941B02BC
S11305008FE99FE00197F1F700C0000062E3CE019C
S11305100E941B028FE99FE00197F1F700C00000E1
S113052068E2CE010E941B028FE99FE00197F1F778
S113053000C0000017C06FEF8D810E9449009FEF3B
S113054029EF80E0915020408040E1F700C0000096
S113055068E3CE010E941B028FE99FE00197F1F747
S113056000C0000063E0CE010E941B028FE19EE404
S11305700197F1F700C0000063E0CE010E941B0266
S11305808FED9BEA0197F1F700C0000063E0CE0114
S11305900E941B0266E0CE010E941B028FE99FE0CD
S11305A00197F1F700C000006CE0CE010E941B022D
S11305B08FE99FE00197F1F700C0000060E8CE01E9
S11305C00E941B028FE99FE00197F1F700C0000031
S11305D0DF91CF9108951F93CF93DF93EC01162FF2
S11305E041E06A8189810E94F3008881811112C0EF
S11305F0612F62956F70CE010E94D701CE010E94D7
S1130600BB01612F6F70CE010E94D701CE010E9401
S1130610BB0107C0612FCE010E94D701CE010E9409
S1130620BB01DF91CF911F91089520E4629F400D9B
S11306301124642F60680E941B02089561E00E94E7
S11306401B020895EF92FF920F931F93CF93DF93B2
S11306507C018B01C0E0D0E004C0C7010E94EB0222
S11306602196F801EC0FFD1F60816111F6CFDF9137
S1130670CF911F910F91FF90EF900895E7EDF0E077
S1130680108281E08183828382E0838383E0848398
S1130690158284E0868385E0878386E0808787E00F
S11306A08187CF010E9445020E94BE080E948005F6
S11306B00E94AC010E947C04789408950E943E0339
S11306C0E12CF12C06E410E00E940C098531F8F0CD
S11306D040E060E087ED90E00E94150360E670E082
S11306E087ED90E00E94220340E061E087ED90E016
S11306F00E94150361E770E087ED90E00E942203F9
S113070084E690E00E94AD040E94C304DDCF0E9401
S11307100C09863008F46FC00E940C09853108F07A
S11307206AC040E060E087ED90E00E9415036FE747
S113073070E087ED90E00E94220340E061E087EDE5
S113074090E00E94150360E970E087ED90E00E945C
S113075022030E94170586EA0E942C050E940C09B8
S1130760853188F00E94ED042FEF89E698E121504D
S113077080409040E1F700C0000080E00E942C051A
S113078004E610E01BC08AE50E942C050E940C09B7
S1130790853188F00E9402052FEF89E698E1215007
S11307A080409040E1F700C0000080E00E942C05EA
S11307B004E610E003C080E00E942C050F3111050F
S11307C044F022E3E216F10421F401501109E12C72
S11307D0F12C8FEFE81AF80AC8010E94AD040E94B8
S11307E0C3049FEF21EE84E0915020408040E1F764
S11307F000C0000069CF40E060E087ED90E00E9417
S1130800150364EA70E087ED90E00E94220340E063
S113081061E087ED90E00E94150364EB70E087EDE2
S113082090E00E9422039FEF21EE84E0915020404B
S11308308040E1F700C0000087ED90E00E941E03B5
S113084067EC70E087ED90E00E942203C0E002E3D1
S113085010E04CC0C8010E94AD040E94D80486EA8E
S11308600E942C050E940C098531D8F00E94ED04E9
S11308709FEF29E688E1915020408040E1F700C0D5
S1130880000080E00E942C059FEF21EE84E091504F
S113089020408040E1F700C00000C1E004E610E021
S11308A025C08AE50E942C050E940C09853190F030
S11308B00E9402059FEF29E688E191502040804084
S11308C0E1F700C0000080E00E942C05C1E004E6CE
S11308D010E00CC080E00E942C059FEF21EE84E024
S11308E0915020408040E1F700C00000CC2309F47F
S11308F0B1CF0E94C304E8CEE1EEF0E082E0808351
S113090093E0918320E830E033832283818741E0C0
S113091064E00E94720041E063E082E00E947200A1
S113092041E066E082E00E94720041E065E082E01E
S11309300E94720041E067E083E00E94720041E09F
S113094067E083E00E94720081EE90E00E948E05D1
S113095081EE90E00E94860708959C012B50310996
S11309602935310568F44FEF489F9001499F300DB8
S11309701124C90164E670E00E94600963BD089512
S11309808FEF83BD089541E064E082E00E94F300AC
S113099040E063E082E00E94F30041E066E082E030
S11309A00E94F30040E065E082E00E94F3000895B5
S11309B041E063E082E00E94F30040E064E082E012
S11309C00E94F30041E065E082E00E94F30040E011
S11309D066E082E00E94F300089541E064E082E072
S11309E00E94F30040E063E082E00E94F30041E0F3
S11309F065E082E00E94F30040E066E082E00E944D
S1130A00F300089541E063E082E00E94F30040E0D7
S1130A1064E082E00E94F30041E066E082E00E942C
S1130A20F30040E065E082E00E94F300089540E0B6
S1130A3063E082E00E94F30040E064E082E00E9410
S1130A40F30040E066E082E00E94F30040E065E0ED
S1130A5082E00E94F30008958A35D1F441E060E019
S1130A6082E00E94F3008FE99FE00197F1F700C054
S1130A70000040E060E082E00E94F3009FEF29E67E
S1130A8088E1915020408040E1F700C000000895C3
S1130A9081111AC041E060E082E00E94F3008FE619
S1130AA097E10197F1F700C0000040E060E082E0C8
S1130AB00E94F3009FEF29E688E191502040804096
S1130AC0E1F700C000000895863AC9F441E060E00F
S1130AD082E00E94F3008FE39FE10197F1F700C0E9
S1130AE0000040E060E082E00E94F3009FEF29E60E
S1130AF088E1915020408040E1F700C00000089553
S1130B0041E060E082E00E94720040E060E082E048
S1130B100E94F30080E00E942C050895FC019FB719
S1130B2090689FBF8081811198C0818181110AC022
S1130B3089B7816089BF83B7877F83BF83B78F7B82
S1130B4083BF0895813061F583B7886083BF83B71D
S1130B508F7B83BF8085811107C083B78F7E83BF5E
S1130B6083B78F7D83BF0895813039F483B7806163
S1130B7083BF83B78F7D83BF0895823039F483B7F1
S1130B80806283BF83B78F7E83BF0895833009F06B
S1130B90BCC183B7806183BF83B7806283BF08957C
S1130BA0823061F583B7806483BF83B7877F83BF57
S1130BB08185811107C083B78F7E83BF83B78F7D03
S1130BC083BF0895813039F483B7806183BF83B7CD
S1130BD08F7D83BF0895823039F483B7806283BFE9
S1130BE083B78F7E83BF0895833009F08EC183B7A6
S1130BF0806183BF83B7806283BF0895833009F027
S1130C0084C183B7886083BF83B7806483BF8185D1
S1130C10811107C083B78F7E83BF83B78F7D83BF66
S1130C200895813039F483B7806183BF83B78F7DA2
S1130C3083BF0895823039F483B7806283BF83B75A
S1130C408F7E83BF0895833009F05FC183B78061CD
S1130C5083BF83B7806283BF0895813009F0C1C028
S1130C608181811102C01FBC0895813021F489B7AC
S1130C70806289BF0895823009F055C08FB58160C4
S1130C808FBD8085811126C08185811107C08FB5F4
S1130C908F7E8FBD8FB58F7D8FBD0895813039F4E0
S1130CA08FB580618FBD8FB58F7D8FBD08958230E4
S1130CB039F48FB580628FBD8FB58F7E8FBD089557
S1130CC0833009F022C18FB580618FBD8FB58062FA
S1130CD08FBD0895813009F018C18185811107C045
S1130CE08FB58F7B8FBD8FB58F778FBD0895813082
S1130CF039F48FB580648FBD8FB58F778FBD08951C
S1130D00823039F48FB580688FBD8FB58F7B8FBDEE
S1130D100895833009F0F9C08FB580648FBD8FB515
S1130D2080688FBD0895833009F0EFC08FB581606E
S1130D308FBD8FB58D7F8FBD8EB588608EBD80854C
S1130D40811126C08185811107C08FB58F7E8FBD2B
S1130D508FB58F7D8FBD0895813039F48FB5806153
S1130D608FBD8FB58F7D8FBD0895823039F48FB5D7
S1130D7080628FBD8FB58F7E8FBD0895833009F05B
S1130D80C4C08FB580618FBD8FB580628FBD08955B
S1130D90813009F0BAC08185811107C08FB58F7B7E
S1130DA08FBD8FB58F778FBD0895813039F48FB59E
S1130DB080648FBD8FB58F778FBD0895823039F4ED
S1130DC08FB580688FBD8FB58F7B8FBD08958330BD
S1130DD009F09BC08FB580648FBD8FB580688FBDCF
S1130DE00895823009F091C08181811107C085B5D1
S1130DF0877F85BD85B58F7B85BD0895813061F57D
S1130E0085B5886085BD85B58F7B85BD808581115D
S1130E1007C085B58F7E85BD85B58F7D85BD089559
S1130E20813039F485B5806185BD85B58F7D85BDFB
S1130E300895823039F485B5806285BD85B58F7E8D
S1130E4085BD0895833009F060C085B5806185BD96
S1130E5085B5806285BD0895823059F585B5806475
S1130E6085BD85B5877F85BD8185811107C085B521
S1130E708F7E85BD85B58F7D85BD0895813039F41C
S1130E8085B5806185BD85B58F7D85BD089582302A
S1130E9039F485B5806285BD85B58F7E85BD08959D
S1130EA0833099F585B5806185BD85B5806285BD42
S1130EB00895833051F585B5886085BD85B5806416
S1130EC085BD8185811107C085B58F7E85BD85B5BA
S1130ED08F7D85BD0895813039F485B5806185BDE8
S1130EE085B58F7D85BD0895823039F485B58062DE
S1130EF085BD85B58F7E85BD0895833031F485B574
S1130F00806185BD85B5806285BD0895FC019081B1
S1130F10911145C0828193818130910551F483B749
S1130F20816083BF83B78D7F83BF83B78B7F83BF8C
S1130F3008958830910551F483B78E7F83BF83B7BA
S1130F40826083BF83B78B7F83BF0895803491050C
S1130F5051F483B7816083BF83B7826083BF83B753
S1130F608B7F83BF0895811521E0920751F483B7E5
S1130F708E7F83BF83B78D7F83BF83B7846083BF36
S1130F8008958115944009F0B2C083B7816083BF8E
S1130F9083B78D7F83BF83B7846083BF0895913007
S1130FA009F045C0828193818130910551F48EB559
S1130FB081608EBD8EB58D7F8EBD8EB58B7F8EBDCF
S1130FC008958830910551F48EB58E7F8EBD8EB50F
S1130FD082608EBD8EB58B7F8EBD08958034910561
S1130FE051F48EB581608EBD8EB582608EBD8EB596
S1130FF08B7F8EBD0895811521E0920751F48EB543
S11310008E7F8EBD8EB58D7F8EBD8EB584608EBD78
S113101008958115944009F06AC08EB581608EBD33
S11310208EB58D7F8EBD8EB584608EBD0895923051
S113103009F05DC0828193818130910551F485B5B9
S1131040816085BD85B58D7F85BD85B58B7F85BD6B
S113105008958830910551F485B58E7F85BD85B599
S1131060826085BD85B58B7F85BD089580329105ED
S113107051F485B5816085BD85B5826085BD85B532
S11310808B7F85BD08958034910551F485B58E7F9D
S113109085BD85B58D7F85BD85B5846085BD089585
S11310A08038910551F485B5816085BD85B58D7F06
S11310B085BD85B5846085BD0895811521E09207BD
S11310C051F485B58E7F85BD85B5826085BD85B5B6
S11310D0846085BD08958115944049F485B5816087
S11310E085BD85B5826085BD85B5846085BD08955F
S11310F0FC018081813019F541305105610571058C
S113110021F489B7806289BF089542305105610591
S1131110710521F489B7806189BF08954330510571
S11311206105710521F489B7886089BF0895443049
S113113051056105710519F489B7846089BF089563
S1131140FC018081813049F4662321F08EB58064EE
S11311508EBD08958EB58F7B8EBD0895FC01808170
S1131160813059F4613021F488B7806288BF0895D2
S1131170623019F488B7846088BF0895ECEEF0E01B
S113118081E08083118281E090E093838283CF01A8
S11311900E948E058CEE90E00E94860744E050E0A9
S11311A060E070E08CEE90E00E94780841E050E04E
S11311B060E070E08CEE90E00E94780841E060E02E
S11311C080E00E94720066E083E00E94640108955A
S11311D0682F8CEE90E00E94A008089541E060E042
S11311E080E00E94F30085E38A95F1F7000040E077
S11311F060E080E00E94F3001DBC1CBC81E00E9402
S1131200E80861E08CEE90E00E94AE0862E08CEEAB
S113121090E00E94AE0808950E94EE0880E090E0FD
S113122024C008B605FE20C01DBC1CBC80E00E9482
S1131230E80861E08CEE90E00E94AE0862E08CEE7B
S113124090E00E94AE081092D60008B605FEFDCFCD
S113125066B577B580E090E025EA33E040E050E001
S11312600E949609822F08950196813127E2920700
S1131270C4F28EE108951F920F920FB60F921124BB
S11312808F938091D6008F5F8093D6008F910F90BB
S11312900FBE0F901F901895AA1BBB1B51E107C0EE
S11312A0AA1FBB1FA617B70710F0A61BB70B881FF2
S11312B0991F5A95A9F780959095BC01CD01089581
S11312C097FB072E16F4009407D077FD09D00E94EF
S11312D04C0907FC05D03EF4909581959F4F0895E5
S11312E0709561957F4F0895A1E21A2EAA1BBB1B2E
S11312F0FD010DC0AA1FBB1FEE1FFF1FA217B307DE
S1131300E407F50720F0A21BB30BE40BF50B661FF3
S1131310771F881F991F1A9469F7609570958095B7
S113132090959B01AC01BD01CF010895052E97FB5B
S11313301EF400940E94AD0957FD07D00E94740961
S113134007FC03D04EF40C94AD09509540953095AC
S113135021953F4F4F4F5F4F08959095809570951D
S111136061957F4F8F4F9F4F0895F894FFCFF4
S113136E44697374616E6365203E20323020636D70
S113137E006D6F766520666F7265776F72640044D8
S113138E697374616E6365203C20323020636D0096
S113139E7363616E6E696E6720666F72206F75740B
S11313AE7075740044697374616E6365203C2035F6
S11313BE20636D007468657265206973206E6F20FA
S11313CE6F7574707574006D6F7665206261636BF2
S10913DE77617264000057
S9030000FC
