S01200004175746F4D6F746976652E7372656305
S11300000C942A000C94D4040C94FE040C94470021
S11300100C9447000C9447000C9447000C94470040
S11300200C9447000C94F0090C9447000C9447007E
S11300300C9447000C9447000C9447000C94470020
S11300400C9447000C9447000C9447000C94470010
S11300500C94470011241FBECFE5D8E0DEBFCDBF0E
S113006010E0A0E6B0E0E2EBF6E102C005900D92EC
S1130070A63DB107D9F720E0A6EDB0E001C01D927E
S1130080A73FB207E1F70E948C030C94570B0C9422
S11300900000662319F06F3F89F00895813041F024
S11300A028F0823039F0833039F008951ABA08956F
S11300B017BA089514BA089511BA0895813049F011
S11300C028F0823049F0833051F008958FEF8ABBD5
S11300D008958FEF87BB08958FEF84BB08958FEF4A
S11300E081BB08954423B9F1413009F06BC08130DC
S11300F089F028F08230C9F0833011F108952AB3D1
S113010081E090E002C0880F991F6A95E2F7822B84
S11301108ABB089527B381E090E002C0880F991F3D
S11301206A95E2F7822B87BB089524B381E090E0BF
S113013002C0880F991F6A95E2F7822B84BB089549
S113014021B381E090E002C0880F991F6A95E2F71D
S1130150822B81BB0895813091F028F08230D9F050
S1130160833029F108952AB381E090E002C0880F1A
S1130170991F6A95E2F7809582238ABB089527B375
S113018081E090E002C0880F991F6A95E2F780959C
S1130190822387BB089524B381E090E002C0880FD6
S11301A0991F6A95E2F78095822384BB089521B351
S11301B081E090E002C0880F991F6A95E2F780956C
S11301C0822381BB0895813041F028F0823039F0D8
S11301D0833039F008956BBB089568BB089565BBFF
S11301E0089562BB08954423B9F1413009F06BC00E
S11301F0813089F028F08230C9F0833011F10895FC
S11302002BB381E090E002C0880F991F6A95E2F752
S1130210822B8BBB089528B381E090E002C0880F45
S1130220991F6A95E2F7822B88BB089525B381E074
S113023090E002C0880F991F6A95E2F7822B85BB74
S1130240089522B381E090E002C0880F991F6A9557
S1130250E2F7822B82BB0895813091F028F082303E
S1130260D9F0833029F108952BB381E090E002C0E6
S1130270880F991F6A95E2F7809582238BBB0895B6
S113028028B381E090E002C0880F991F6A95E2F7D5
S11302908095822388BB089525B381E090E002C055
S11302A0880F991F6A95E2F78095822385BB08958C
S11302B022B381E090E002C0880F991F6A95E2F7AB
S11302C08095822382BB0895813079F028F08230B2
S11302D0A9F08330E1F024C089B390E002C0959581
S11302E087956A95E2F78170089586B390E002C01D
S11302F0959587956A95E2F78170089583B390E0A8
S113030002C0959587956A95E2F78170089580B348
S113031090E002C0959587956A95E2F781700895FB
S113032080E008958130B1F028F0823019F18330F3
S113033089F108952AB381E090E002C0880F991FE3
S11303406A95E2F7982F909592239ABB9BB3892BD9
S11303508BBB089527B381E090E002C0880F991FFA
S11303606A95E2F7982F9095922397BB98B3892BBF
S113037088BB089524B381E090E002C0880F991FE0
S11303806A95E2F7982F9095922394BB95B3892BA5
S113039085BB089521B381E090E002C0880F991FC6
S11303A06A95E2F7982F9095922391BB92B3892B8B
S11303B082BB089540E062E083E00E94720040E066
S11303C063E083E00E94720080EC8BBF8FE085BF06
S11303D00895CF93DF93EC0141E06C8189810E9401
S11303E0F3008FE891E00197F1F700C0000040E0CE
S11303F06C8189810E94F3008FE891E00197F1F705
S113040000C00000DF91CF9108951F93CF93DF9335
S1130410EC01162F8881811135C060FF06C041E0D0
S11304206E818D810E94F30005C040E06E818D8154
S11304300E94F30011FF06C041E06F818D810E948C
S1130440F30005C040E06F818D810E94F30012FF2C
S113045006C041E068858D810E94F30005C040E03C
S113046068858D810E94F30013FF06C041E0698511
S11304708D810E94F30009C040E069858D810E944E
S1130480F30003C08D810E94E300DF91CF911F919F
S113049008951F93CF93DF93EC01162F40E06A81F8
S11304A089810E94F3008881811112C0612F6295B5
S11304B06F70CE010E940502CE010E94E901612FF6
S11304C06F70CE010E940502CE010E94E90107C0AF
S11304D0612FCE010E940502CE010E94E901DF9145
S11304E0CF911F910895CF93DF93EC0141E06A818E
S11304F089810E94720041E06B8189810E947200AF
S113050041E06C8189810E94720040E06B818981A5
S11305100E94F300888181113CC041E06E818D818D
S11305200E94720041E06F818D810E94720041E05F
S113053068858D810E94720041E069858D810E94E9
S113054072002FEF89EF90E0215080409040E1F756
S113055000C0000063E3CE010E9449028FE99FE0DE
S11305600197F1F700C0000062E3CE010E94490246
S11305708FE99FE00197F1F700C0000068E2CE0127
S11305800E9449028FE99FE00197F1F700C0000043
S113059017C06FEF8D810E9449009FEF29EF80E023
S11305A0915020408040E1F700C0000068E3CE0194
S11305B00E9449028FE99FE00197F1F700C0000013
S11305C063E0CE010E9449028FE19EE40197F1F7B6
S11305D000C0000063E0CE010E9449028FED9BEA57
S11305E00197F1F700C0000063E0CE010E944902C8
S11305F066E0CE010E9449028FE99FE00197F1F77E
S113060000C000006CE0CE010E9449028FE99FE027
S11306100197F1F700C0000060E8CE010E94490292
S11306208FE99FE00197F1F700C00000DF91CF91BF
S113063008951F93CF93DF93EC01162F41E06A8155
S113064089810E94F3008881811112C0612F629513
S11306506F70CE010E940502CE010E94E901612F54
S11306606F70CE010E940502CE010E94E90107C00D
S1130670612FCE010E940502CE010E94E901DF91A3
S1130680CF911F91089520E4629F400D1124642F9F
S113069060680E944902089561E00E944902089539
S11306A0EF92FF920F931F93CF93DF937C018B0103
S11306B0C0E0D0E004C0C7010E9419032196F801EC
S11306C0EC0FFD1F60816111F6CFDF91CF911F9177
S11306D00F91FF90EF900895E7EDF0E0108281E034
S11306E08183828382E0838383E08483158284E030
S11306F0868385E0878386E0808787E08187CF01D2
S11307000E9473020E9467090E94D8050E94DA01C0
S11307100E942805789408950E946C03E12CF12C22
S113072006E410E00E94B50920E030E040EA51E41C
S11307300E942A0B1816FCF440E060E087ED90E07C
S11307400E94430360E670E087ED90E00E9450034E
S113075040E061E087ED90E00E94430361E770E0D0
S113076087ED90E00E94500384E690E00E945905D2
S11307700E946F05D7CF0E94B50920E030E040EA1F
S113078050E40E942A0B18160CF081C00E94B5098F
S113079020E030E040EA51E40E94010A18160CF40B
S11307A076C040E060E087ED90E00E9443036FE78D
S11307B070E087ED90E00E94500340E061E087ED37
S11307C090E00E94430360E970E087ED90E00E94AE
S11307D050030E94C30586EA0E94E3050E94B509FE
S11307E020E030E040EA51E40E942A0B18168CF411
S11307F00E9499052FEF89E698E1215080409040AE
S1130800E1F700C0000080E00E94E30504E610E088
S113081021C08AE50E94E3050E94B50920E030E08A
S113082040EA51E40E942A0B18168CF40E94AE058B
S11308302FEF89E698E1215080409040E1F700C015
S1130840000080E00E94E30504E610E003C080E0BD
S11308500E94E3050F31110544F022E3E216F1048E
S113086021F401501109E12CF12C8FEFE81AF80A58
S1130870C8010E9459050E946F059FEF21EE84E094
S1130880915020408040E1F700C000004BCF40E091
S113089060E087ED90E00E94430364EA70E087ED36
S11308A090E00E94500340E061E087ED90E00E94F8
S11308B0430364EB70E087ED90E00E9450039FEFE8
S11308C021EE84E0915020408040E1F700C0000018
S11308D087ED90E00E944C0367EC70E087ED90E0B8
S11308E00E945003C0E002E310E058C0C8010E9417
S11308F059050E94840586EA0E94E3050E94B50911
S113090020E030E040EA51E40E942A0B1816DCF49F
S11309100E9499059FEF29E688E19150204080408C
S1130920E1F700C0000080E00E94E3059FEF21EEA4
S113093084E0915020408040E1F700C00000C1E015
S113094004E610E02BC08AE50E94E3050E94B50985
S113095020E030E040EA51E40E942A0B181694F497
S11309600E94AE059FEF29E688E191502040804027
S1130970E1F700C0000080E00E94E305C1E004E666
S113098010E00CC080E00E94E3059FEF21EE84E0BC
S1130990915020408040E1F700C00000CC2309F4CE
S11309A0A5CF0E946F05BECE1F920F920FB60F9275
S11309B011242F933F934F935F936F937F938F9360
S11309C09F93AF93BF93EF93FF930E94C30562E09D
S11309D083E00E9464018111FACFFF91EF91BF91EE
S11309E0AF919F918F917F916F915F914F913F91C3
S11309F02F910F900FBE0F901F9018951F920F927A
S1130A000FB60F9211242F933F934F935F936F93DD
S1130A107F938F939F93AF93BF93EF93FF930E9422
S1130A20C30563E083E00E9464018111FACFFF9162
S1130A30EF91BF91AF919F918F917F916F915F9152
S1130A404F913F912F910F900FBE0F901F901895CB
S1130A50E1EEF0E082E0808393E0918320E830E0EF
S1130A6033832283818741E063E00E94720041E086
S1130A7064E082E00E94720041E065E082E00E944E
S1130A80720041E066E082E00E94720041E067E0AB
S1130A9083E00E94720041E067E083E00E947200FC
S1130AA081EE90E00E94370681EE90E00E942F08CC
S1130AB008959C012B5031092935310568F44FEF15
S1130AC0489F9001499F300D1124C90164E670E0EC
S1130AD00E94430B63BD08958FEF83BD089541E0E9
S1130AE063E082E00E94F30040E064E082E00E9460
S1130AF0F30041E065E082E00E94F30040E066E03C
S1130B0082E00E94F300089541E064E082E00E94E4
S1130B10F30040E063E082E00E94F30041E066E01D
S1130B2082E00E94F30040E065E082E00E94F3006E
S1130B30089541E063E082E00E94F30040E064E055
S1130B4082E00E94F30041E066E082E00E94F3004C
S1130B5040E065E082E00E94F300089541E064E033
S1130B6082E00E94F30040E063E082E00E94F30030
S1130B7041E065E082E00E94F30040E066E082E04C
S1130B800E94F300089540E064E082E00E94F300D4
S1130B9040E063E082E00E94F30040E065E082E030
S1130BA00E94F30040E066E082E00E94F3000895B2
S1130BB041E060E082E00E94720040E060E082E098
S1130BC00E94F30008958A35D1F441E060E082E0A8
S1130BD00E94F3008FE99FE00197F1F700C0000045
S1130BE040E060E082E00E94F3009FEF29E688E1A4
S1130BF0915020408040E1F700C000000895811129
S1130C001AC041E060E082E00E94F3008FE697E1C1
S1130C100197F1F700C0000040E060E082E00E942C
S1130C20F3009FEF29E688E1915020408040E1F7EE
S1130C3000C000000895863AC9F441E060E082E013
S1130C400E94F3008FE39FE10197F1F700C00000D9
S1130C5040E060E082E00E94F3009FEF29E688E133
S1130C60915020408040E1F700C000000895FC014D
S1130C709FB790689FBF8081811198C08181811145
S1130C800AC089B7816089BF83B7877F83BF83B771
S1130C908F7B83BF0895813061F583B7886083BFFC
S1130CA083B78F7B83BF8085811107C083B78F7E15
S1130CB083BF83B78F7D83BF0895813039F483B7B1
S1130CC0806183BF83B78F7D83BF0895823039F4F9
S1130CD083B7806283BF83B78F7E83BF08958330D9
S1130CE009F0BCC183B7806183BF83B7806283BFCF
S1130CF00895823061F583B7806483BF83B7877FAB
S1130D0083BF8185811107C083B78F7E83BF83B77B
S1130D108F7D83BF0895813039F483B7806183BFA9
S1130D2083B78F7D83BF0895823039F483B780629F
S1130D3083BF83B78F7E83BF0895833009F08EC14C
S1130D4083B7806183BF83B7806283BF0895833094
S1130D5009F084C183B7886083BF83B7806483BF8D
S1130D608185811107C083B78F7E83BF83B78F7D51
S1130D7083BF0895813039F483B7806183BF83B71B
S1130D808F7D83BF0895823039F483B7806283BF37
S1130D9083B78F7E83BF0895833009F05FC183B723
S1130DA0806183BF83B7806283BF0895813009F077
S1130DB0C1C08181811102C01FBC0895813021F41A
S1130DC089B7806289BF0895823009F055C08FB514
S1130DD081608FBD8085811126C08185811107C006
S1130DE08FB58F7E8FBD8FB58F7D8FBD0895813078
S1130DF039F48FB580618FBD8FB58F7D8FBD089518
S1130E00823039F48FB580628FBD8FB58F7E8FBDF0
S1130E100895833009F022C18FB580618FBD8FB5ED
S1130E2080628FBD0895813009F018C181858111D8
S1130E3007C08FB58F7B8FBD8FB58F778FBD08951A
S1130E40813039F48FB580648FBD8FB58F778FBDB6
S1130E500895823039F48FB580688FBD8FB58F7B4C
S1130E608FBD0895833009F0F9C08FB580648FBDBC
S1130E708FB580688FBD0895833009F0EFC08FB5BA
S1130E8081608FBD8FB58D7F8FBD8EB588608EBD1F
S1130E908085811126C08185811107C08FB58F7E21
S1130EA08FBD8FB58F7D8FBD0895813039F48FB597
S1130EB080618FBD8FB58F7D8FBD0895823039F4E9
S1130EC08FB580628FBD8FB58F7E8FBD08958330BF
S1130ED009F0C4C08FB580618FBD8FB580628FBDAE
S1130EE00895813009F0BAC08185811107C08FB59A
S1130EF08F7B8FBD8FB58F778FBD0895813039F487
S1130F008FB580648FBD8FB58F778FBD0895823084
S1130F1039F48FB580688FBD8FB58F7B8FBD0895F1
S1130F20833009F09BC08FB580648FBD8FB5806816
S1130F308FBD0895823009F091C08181811107C06D
S1130F4085B5877F85BD85B58F7B85BD0895813047
S1130F5061F585B5886085BD85B58F7B85BD808548
S1130F60811107C085B58F7E85BD85B58F7D85BD13
S1130F700895813039F485B5806185BD85B58F7D4F
S1130F8085BD0895823039F485B5806285BD85B507
S1130F908F7E85BD0895833009F060C085B580617A
S1130FA085BD85B5806285BD0895823059F585B5C6
S1130FB0806485BD85B5877F85BD8185811107C026
S1130FC085B58F7E85BD85B58F7D85BD08958130BE
S1130FD039F485B5806185BD85B58F7D85BD08955E
S1130FE0823039F485B5806285BD85B58F7E85BD37
S1130FF00895833099F585B5806185BD85B5806296
S113100085BD0895833051F585B5886085BD85B566
S1131010806485BD8185811107C085B58F7E85BDBE
S113102085B58F7D85BD0895813039F485B580619E
S113103085BD85B58F7D85BD0895823039F485B52C
S1131040806285BD85B58F7E85BD0895833031F47A
S113105085B5806185BD85B5806285BD0895FC0137
S11310609081911145C0828193818130910551F421
S113107083B7816083BF83B78D7F83BF83B78B7F43
S113108083BF08958830910551F483B78E7F83BF61
S113109083B7826083BF83B78B7F83BF0895803417
S11310A0910551F483B7816083BF83B7826083BFA6
S11310B083B78B7F83BF0895811521E0920751F494
S11310C083B78E7F83BF83B78D7F83BF83B78460ED
S11310D083BF08958115944009F0B2C083B781603D
S11310E083BF83B78D7F83BF83B7846083BF089535
S11310F0913009F045C0828193818130910551F48A
S11311008EB581608EBD8EB58D7F8EBD8EB58B7F85
S11311108EBD08958830910551F48EB58E7F8EBDB5
S11311208EB582608EBD8EB58B7F8EBD0895803462
S1131130910551F48EB581608EBD8EB582608EBDF1
S11311408EB58B7F8EBD0895811521E0920751F4F1
S11311508EB58E7F8EBD8EB58D7F8EBD8EB584602F
S11311608EBD08958115944009F06AC08EB58160E2
S11311708EBD8EB58D7F8EBD8EB584608EBD089577
S1131180923009F05DC0828193818130910551F4E0
S113119085B5816085BD85B58D7F85BD85B58B7F22
S11311A085BD08958830910551F485B58E7F85BD40
S11311B085B5826085BD85B58B7F85BD08958032F8
S11311C0910551F485B5816085BD85B5826085BD85
S11311D085B58B7F85BD08958034910551F485B51F
S11311E08E7F85BD85B58D7F85BD85B5846085BDC4
S11311F008958038910551F485B5816085BD85B524
S11312008D7F85BD85B5846085BD0895811521E0F8
S1131210920751F485B58E7F85BD85B5826085BD05
S113122085B5846085BD08958115944049F485B5DC
S1131230816085BD85B5826085BD85B5846085BDC9
S11312400895FC018081813019F541305105610513
S1131250710521F489B7806289BF08954230510530
S11312606105710521F489B7806189BF0895433010
S113127051056105710521F489B7886089BF089516
S1131280443051056105710519F489B7846089BF3B
S11312900895FC018081813049F4662321F08EB5E4
S11312A080648EBD08958EB58F7B8EBD0895FC013C
S11312B08081813059F4613021F488B7806288BF1D
S11312C00895623019F488B7846088BF0895ECEEFD
S11312D0F0E081E08083118281E090E09383828357
S11312E0CF010E9437068CEE90E00E942F0844E064
S11312F050E060E070E08CEE90E00E94210941E053
S113130050E060E070E08CEE90E00E94210941E042
S113131060E080E00E94720066E083E00E94920137
S11313200895682F8CEE90E00E944909089541E0E9
S113133060E080E00E94F30085E38A95F1F7000005
S113134040E060E080E00E94F3001DBC1CBC81E032
S11313500E94910961E08CEE90E00E94570962E0DE
S11313608CEE90E00E94570908950E94970980E04E
S113137090E029C008B605FE25C01DBC1CBC80E059
S11313800E94910961E08CEE90E00E94570962E0AE
S11313908CEE90E00E9457091092D60008B605FE24
S11313A0FDCF66B577B580E090E00E947A0A20E030
S11313B030E449E654E40E94060A562F472F382F9A
S11313C0292F09C00196813127E292079CF250E04F
S11313D040E030EF21E4652F742F832F922F08957E
S11313E01F920F920FB60F9211248F938091D60003
S11313F08F5F8093D6008F910F900FBE0F901F9038
S113140018950E94B50A08F481E008950E941A0A0A
S11314100C94F00A0E94E90A58F00E94E20A40F093
S113142029F45F3F29F00C94D90A51110C94240B30
S11314300C94DF0A0E94010B68F39923B1F355233E
S113144091F3951B550BBB27AA27621773078407D3
S113145038F09F5F5F4F220F331F441FAA1FA9F369
S113146035D00E2E3AF0E0E832D091505040E69557
S1131470001CCAF72BD0FE2F29D0660F771F881FB8
S1131480BB1F261737074807AB07B0E809F0BB0BAB
S1131490802DBF01FF2793585F4F3AF09E3F5105BF
S11314A078F00C94D90A0C94240B5F3FE4F3983E33
S11314B0D4F3869577956795B795F7959F5FC9F7A8
S11314C0880F911D9695879597F90895E1E0660F29
S11314D0771F881FBB1F621773078407BA0720F0A2
S11314E0621B730B840BBA0BEE1F88F7E09508950B
S11314F0E89409C097FB3EF49095809570956195AA
S11315007F4F8F4F9F4F9923A9F0F92F96E9BB275F
S11315109395F695879577956795B795F111F8CFDB
S1131520FAF4BB0F11F460FF1BC06F5F7F4F8F4F46
S11315309F4F16C0882311F096E911C0772321F03C
S11315409EE8872F762F05C0662371F096E8862FD4
S113155070E060E02AF09A95660F771F881FDAF72B
S1131560880F9695879597F90895990F0008550F58
S1131570AA0BE0E8FEEF16161706E807F907C0F015
S113158012161306E407F50798F0621B730B840B1D
S1131590950B39F40A2661F0232B242B252B21F4F7
S11315A008950A2609F4A140A6958FEF811D811D97
S11315B0089597F99F6780E870E060E008959FEFD1
S11315C080EC089500240A941616170618060906D6
S11315D0089500240A9412161306140605060895A5
S11315E0092E0394000C11F4882352F0BB0F40F42D
S11315F0BF2B11F460FF04C06F5F7F4F8F4F9F4F6D
S1131600089557FD9058440F551F59F05F3F71F0EE
S11316104795880F97FB991F61F09F3F79F0879555
S11316200895121613061406551FF2CF4695F1DFDE
S113163008C0161617061806991FF1CF869571056E
S1131640610508940895E894BB2766277727CB01A2
S113165097F908950E94B50A08F48FEF0895AA1B1C
S1131660BB1B51E107C0AA1FBB1FA617B70710F089
S1131670A61BB70B881F991F5A95A9F780959095BB
S1131680BC01CD01089597FB072E16F4009407D0F2
S113169077FD09D00E942F0B07FC05D03EF49095EE
S11316A081959F4F0895709561957F4F0895F894A3
S10516B0FFCF66
S11316B244697374616E6365203E20323020636D29
S11316C2006D6F766520666F7265776F7264004491
S11316D2697374616E6365203C20323020636D004F
S11316E27363616E6E696E6720666F72206F7574C4
S11316F27075740044697374616E6365203C2035AF
S113170220636D007468657265206973206E6F20B2
S11317126F7574707574006D6F7665206261636BAA
S10917227761726400000F
S9030000FC
